:100000000C942A000C9460000C943C000C943C006E
:100010000C943C000C943C000C943C000C943C0070
:100020000C943C000C943C000C943C000C943C0060
:100030000C943C000C943C000C943C000C943C0050
:100040000C943C000C943C000C943C000C943C0040
:100050000C943C0011241FBECFE5D8E0DEBFCDBF1D
:1000600020E0A0E6B0E001C01D92A436B207E1F79F
:100070000E94CB000C94C4030C940000809161009A
:10008000823019F00E94A00308950E94B7030895DA
:100090000E9407030895CF93109261000E9490037D
:1000A000C1E0C09361000E945A0382E08093610026
:1000B0000E949803C09361000E945A03CF91089553
:1000C0001F920F920FB60F9211242F933F934F93CD
:1000D0005F936F937F938F939F93AF93BF93EF93B0
:1000E000FF9380916200813039F44EE350E064E484
:1000F00082E00E94970003C08F5F80936200FF91AF
:10010000EF91BF91AF919F918F917F916F915F918F
:100110004F913F912F910F900FBE0F901F90189508
:1001200040E00E94D00008950E9415020895EF92C9
:10013000FF920F931F93CF93DF93082F162F7A010F
:10014000C0E0D0E00EC040E050E0612F802F0E9460
:10015000940080910000811103C0F701099505C04A
:100160002196C131F7E2DF0774F3DF91CF911F9140
:100170000F91FF90EF90089541E00E94D000089504
:1001800041E00E945301089540E00E945301089508
:100190000E94D60108950E9448000E944B00FDCFA6
:1001A000623449F118F4613441F00895633409F47C
:1001B00040C0643409F45AC0089541110CC09AB388
:1001C00021E030E0082E02C0220F331F0A94E2F72C
:1001D000209529232ABB413009F064C04AB321E0AD
:1001E00030E0B90102C0660F771F8A95E2F7CB01B4
:1001F000842B8ABB089541110CC097B321E030E0F5
:10020000082E02C0220F331F0A94E2F720952923FB
:1002100027BB413009F046C047B321E030E0B901C7
:1002200002C0660F771F8A95E2F7CB01842B87BB4C
:10023000089541110CC094B321E030E0082E02C0B3
:10024000220F331F0A94E2F72095292324BB413063
:1002500049F544B321E030E0B90102C0660F771FD1
:100260008A95E2F7CB01842B84BB089541110CC021
:1002700091B321E030E0082E02C0220F331F0A9410
:10028000E2F72095292321BB413061F441B321E0FD
:1002900030E0B90102C0660F771F8A95E2F7CB0103
:1002A000842B81BB0895623449F118F4613441F024
:1002B0000895633409F440C0643409F45AC00895C1
:1002C00041110CC09BB321E030E0082E02C0220F88
:1002D000331F0A94E2F7209529232BBB413009F004
:1002E00064C04BB321E030E0B90102C0660F771F54
:1002F0008A95E2F7CB01842B8BBB089541110CC08A
:1003000098B321E030E0082E02C0220F331F0A9478
:10031000E2F72095292328BB413009F046C048B3B5
:1003200021E030E0B90102C0660F771F8A95E2F73D
:10033000CB01842B88BB089541110CC095B321E0FB
:1003400030E0082E02C0220F331F0A94E2F72095F6
:10035000292325BB413049F545B321E030E0B901FF
:1003600002C0660F771F8A95E2F7CB01842B85BB0D
:10037000089541110CC092B321E030E0082E02C074
:10038000220F331F0A94E2F72095292322BB413024
:1003900061F442B321E030E0B90102C0660F771F7B
:1003A0008A95E2F7CB01842B82BB08956234B1F0C9
:1003B00018F4613431F008956334E9F0643441F1A4
:1003C00008954BB321E030E0B90102C0660F771FFA
:1003D0008A95E2F7CB0184278BBB089548B321E0CF
:1003E00030E0B90102C0660F771F8A95E2F7CB01B2
:1003F000842788BB089545B321E030E0B90102C0ED
:10040000660F771F8A95E2F7CB01842785BB089595
:1004100042B321E030E0B90102C0660F771F8A9530
:10042000E2F7CB01842782BB0895623409F118F406
:10043000613439F00895633491F1643409F446C0AD
:10044000089599B321E030E0B901082E02C0660F8B
:10045000771F0A94E2F7292F30E026233723B901CA
:1004600002C0759567958A95E2F7FA016083089551
:1004700096B321E030E0B901082E02C0660F771F65
:100480000A94E2F7292F30E026233723B90102C06E
:10049000759567958A95E2F7FA016083089593B39D
:1004A00021E030E0B901082E02C0660F771F0A94E0
:1004B000E2F7292F30E026233723B90102C07595D2
:1004C00067958A95E2F7FA016083089590B321E079
:1004D00030E0B901082E02C0660F771F0A94E2F7D8
:1004E000292F30E026233723B90102C0759567957F
:1004F0008A95E2F7FA01608308958BB780648BBF19
:1005000083E085BF8FB780688FBF0895823089F000
:1005100028F4882341F0813049F00895833061F058
:10052000843069F0089581E083BF089582E083BF3D
:10053000089583E083BF089584E083BF089585E034
:1005400083BF0895823089F028F4882341F08130F8
:1005500049F00895833061F0843069F0089581E0B6
:100560008EBD089582E08EBD089583E08EBD08950E
:1005700084E08EBD089585E08EBD0895CF93C62F8B
:1005800082BF842F0E948602C1110DC008B600FEF2
:10059000FDCF81E088BF0EC008B600FEFDCF21E090
:1005A00028BF019602C080E090E02C2F30E0821737
:1005B000930794F313BECF910895CF93C62F9DBD9B
:1005C0008CBD842F0E94A202C1110DC008B602FE8C
:1005D000FDCF84E088BF0EC008B602FEFDCF24E048
:1005E00028BF019602C080E090E02C2F30E08217F7
:1005F000930794F31EBCCF91089561E481E00E94BB
:10060000C800089562E481E00E94C800089561E492
:1006100080E00E94BC0061E481E00E94BC0061E4D3
:1006200082E00E94BC0062E480E00E94BC0062E4C0
:1006300081E00E94BC0062E482E00E94BC0064E4AD
:1006400082E00E9490000E947D02089561E480E0B3
:100650000E94C00061E481E00E94C40061E482E085
:100660000E94C400089562E480E00E94C00062E439
:1006700081E00E94C40062E482E00E94C400089508
:1006800061E480E00E94C40061E481E00E94C40053
:1006900061E482E00E94C000089562E480E00E946C
:1006A000C40062E481E00E94C40062E482E00E942F
:1006B000C0000895CF93DF93C0E0D0E008C00E944F
:1006C000FD0244E064E08CE00E94BE022196C53049
:1006D000D105ACF3DF91CF910895CF93DF93C0E0C4
:1006E000D0E00BC00E9402030E94FD0241E062E0E4
:1006F0008CED9BE00E94DD022196C530D10594F37C
:10070000DF91CF91089562E480E00E94C40062E42A
:1007100081E00E94C40062E482E00E94C400089567
:100720000E94400344E064E18CE00E94BE02089510
:100730000E94260344E064E18CE00E94BE0208951A
:100740000E9433030E946D030E944D030E94260302
:1007500041E06AE08CED9BE00E94DD020E946D03A7
:100760000E9433030E9440030E94830308950E9465
:100770004D030E94260341E06AE08CED9BE00E945D
:0C078000DD020E9483030895F894FFCF6F
:00000001FF
